{
  "contractName": "HashedTimelock",
  "abi": [
    {
      "anonymous": false,
      "inputs": [
        {
          "indexed": true,
          "internalType": "bytes32",
          "name": "contractId",
          "type": "bytes32"
        },
        {
          "indexed": true,
          "internalType": "address",
          "name": "sender",
          "type": "address"
        },
        {
          "indexed": true,
          "internalType": "address",
          "name": "receiver",
          "type": "address"
        },
        {
          "indexed": false,
          "internalType": "uint256",
          "name": "amount",
          "type": "uint256"
        },
        {
          "indexed": false,
          "internalType": "bytes32",
          "name": "hashlock",
          "type": "bytes32"
        },
        {
          "indexed": false,
          "internalType": "uint256",
          "name": "timelock",
          "type": "uint256"
        }
      ],
      "name": "LogHTLCNew",
      "type": "event"
    },
    {
      "anonymous": false,
      "inputs": [
        {
          "indexed": true,
          "internalType": "bytes32",
          "name": "contractId",
          "type": "bytes32"
        }
      ],
      "name": "LogHTLCRefund",
      "type": "event"
    },
    {
      "anonymous": false,
      "inputs": [
        {
          "indexed": true,
          "internalType": "bytes32",
          "name": "contractId",
          "type": "bytes32"
        }
      ],
      "name": "LogHTLCWithdraw",
      "type": "event"
    },
    {
      "inputs": [
        {
          "internalType": "address payable",
          "name": "_receiver",
          "type": "address"
        },
        {
          "internalType": "bytes32",
          "name": "_hashlock",
          "type": "bytes32"
        },
        {
          "internalType": "uint256",
          "name": "_timelock",
          "type": "uint256"
        }
      ],
      "name": "newContract",
      "outputs": [
        {
          "internalType": "bytes32",
          "name": "contractId",
          "type": "bytes32"
        }
      ],
      "stateMutability": "payable",
      "type": "function",
      "payable": true
    },
    {
      "inputs": [],
      "name": "balance",
      "outputs": [
        {
          "internalType": "uint256",
          "name": "",
          "type": "uint256"
        }
      ],
      "stateMutability": "view",
      "type": "function",
      "constant": true
    },
    {
      "inputs": [
        {
          "internalType": "bytes32",
          "name": "_contractId",
          "type": "bytes32"
        },
        {
          "internalType": "string",
          "name": "_preimage",
          "type": "string"
        }
      ],
      "name": "withdraw",
      "outputs": [
        {
          "internalType": "bool",
          "name": "",
          "type": "bool"
        }
      ],
      "stateMutability": "nonpayable",
      "type": "function"
    },
    {
      "inputs": [
        {
          "internalType": "bytes32",
          "name": "_contractId",
          "type": "bytes32"
        }
      ],
      "name": "refund",
      "outputs": [
        {
          "internalType": "bool",
          "name": "",
          "type": "bool"
        }
      ],
      "stateMutability": "nonpayable",
      "type": "function"
    },
    {
      "inputs": [
        {
          "internalType": "bytes32",
          "name": "_contractId",
          "type": "bytes32"
        }
      ],
      "name": "getContract",
      "outputs": [
        {
          "internalType": "address",
          "name": "sender",
          "type": "address"
        },
        {
          "internalType": "address",
          "name": "receiver",
          "type": "address"
        },
        {
          "internalType": "uint256",
          "name": "amount",
          "type": "uint256"
        },
        {
          "internalType": "bytes32",
          "name": "hashlock",
          "type": "bytes32"
        },
        {
          "internalType": "uint256",
          "name": "timelock",
          "type": "uint256"
        },
        {
          "internalType": "bool",
          "name": "withdrawn",
          "type": "bool"
        },
        {
          "internalType": "bool",
          "name": "refunded",
          "type": "bool"
        },
        {
          "internalType": "string",
          "name": "preimage",
          "type": "string"
        }
      ],
      "stateMutability": "view",
      "type": "function",
      "constant": true
    }
  ],
  "bytecode": "0x608060405234801561001057600080fd5b506119bd806100206000396000f3fe60806040526004361061004a5760003560e01c806306a536651461004f578063335ef5bd1461008c5780637249fbb6146100bc578063b69ef8a8146100f9578063e16c7d9814610124575b600080fd5b34801561005b57600080fd5b5061007660048036038101906100719190610ef3565b610168565b60405161008391906114fe565b60405180910390f35b6100a660048036038101906100a19190610e52565b61049d565b6040516100b39190611519565b60405180910390f35b3480156100c857600080fd5b506100e360048036038101906100de9190610ea1565b6107f1565b6040516100f091906114fe565b60405180910390f35b34801561010557600080fd5b5061010e610ae5565b60405161011b91906116b4565b60405180910390f35b34801561013057600080fd5b5061014b60048036038101906101469190610ea1565b610aed565b60405161015f989796959493929190611479565b60405180910390f35b60008261017481610c85565b6101b3576040517f08c379a00000000000000000000000000000000000000000000000000000000081526004016101aa90611574565b60405180910390fd5b83836000816040516020016101c89190611462565b604051602081830303815290604052805190602001209050806000808581526020019081526020016000206003015414610237576040517f08c379a000000000000000000000000000000000000000000000000000000000815260040161022e90611674565b60405180910390fd5b863373ffffffffffffffffffffffffffffffffffffffff1660008083815260200190815260200160002060010160009054906101000a900473ffffffffffffffffffffffffffffffffffffffff1673ffffffffffffffffffffffffffffffffffffffff16146102db576040517f08c379a00000000000000000000000000000000000000000000000000000000081526004016102d290611554565b60405180910390fd5b6000151560008083815260200190815260200160002060050160009054906101000a900460ff16151514610344576040517f08c379a000000000000000000000000000000000000000000000000000000000815260040161033b90611614565b60405180910390fd5b42600080838152602001908152602001600020600401541161039b576040517f08c379a000000000000000000000000000000000000000000000000000000000815260040161039290611694565b60405180910390fd5b60008060008a81526020019081526020016000209050878160060190805190602001906103c9929190610cf3565b5060018160050160006101000a81548160ff0219169083151502179055508060010160009054906101000a900473ffffffffffffffffffffffffffffffffffffffff1673ffffffffffffffffffffffffffffffffffffffff166108fc82600201549081150290604051600060405180830381858888f19350505050158015610455573d6000803e3d6000fd5b5060008160020181905550887fd6fd4c8e45bf0c70693141c7ce46451b6a6a28ac8386fca2ba914044e0e2391660405160405180910390a26001965050505050505092915050565b60008034116104e1576040517f08c379a00000000000000000000000000000000000000000000000000000000081526004016104d890611634565b60405180910390fd5b81428111610524576040517f08c379a000000000000000000000000000000000000000000000000000000000815260040161051b90611534565b60405180910390fd5b6002338634878760405160200161053f9594939291906113ec565b60405160208183030381529060405260405161055b919061144b565b602060405180830381855afa158015610578573d6000803e3d6000fd5b5050506040513d601f19601f8201168201806040525081019061059b9190610eca565b91506105a682610c85565b156105e6576040517f08c379a00000000000000000000000000000000000000000000000000000000081526004016105dd906115b4565b60405180910390fd5b6040518061010001604052803373ffffffffffffffffffffffffffffffffffffffff1681526020018673ffffffffffffffffffffffffffffffffffffffff1681526020013481526020018581526020018481526020016000151581526020016000151581526020016040518060200160405280600081525081525060008084815260200190815260200160002060008201518160000160006101000a81548173ffffffffffffffffffffffffffffffffffffffff021916908373ffffffffffffffffffffffffffffffffffffffff16021790555060208201518160010160006101000a81548173ffffffffffffffffffffffffffffffffffffffff021916908373ffffffffffffffffffffffffffffffffffffffff16021790555060408201518160020155606082015181600301556080820151816004015560a08201518160050160006101000a81548160ff02191690831515021790555060c08201518160050160016101000a81548160ff02191690831515021790555060e082015181600601908051906020019061077b929190610cf3565b509050508473ffffffffffffffffffffffffffffffffffffffff163373ffffffffffffffffffffffffffffffffffffffff16837f329a8316ed9c3b2299597538371c2944c5026574e803b1ec31d6113e1cd67bde3488886040516107e1939291906116cf565b60405180910390a4509392505050565b6000816107fd81610c85565b61083c576040517f08c379a000000000000000000000000000000000000000000000000000000000815260040161083390611574565b60405180910390fd5b823373ffffffffffffffffffffffffffffffffffffffff1660008083815260200190815260200160002060000160009054906101000a900473ffffffffffffffffffffffffffffffffffffffff1673ffffffffffffffffffffffffffffffffffffffff16146108e0576040517f08c379a00000000000000000000000000000000000000000000000000000000081526004016108d790611654565b60405180910390fd5b6000151560008083815260200190815260200160002060050160019054906101000a900460ff16151514610949576040517f08c379a0000000000000000000000000000000000000000000000000000000008152600401610940906115f4565b60405180910390fd5b6000151560008083815260200190815260200160002060050160009054906101000a900460ff161515146109b2576040517f08c379a00000000000000000000000000000000000000000000000000000000081526004016109a990611594565b60405180910390fd5b42600080838152602001908152602001600020600401541115610a0a576040517f08c379a0000000000000000000000000000000000000000000000000000000008152600401610a01906115d4565b60405180910390fd5b6000806000868152602001908152602001600020905060018160050160016101000a81548160ff0219169083151502179055508060000160009054906101000a900473ffffffffffffffffffffffffffffffffffffffff1673ffffffffffffffffffffffffffffffffffffffff166108fc82600201549081150290604051600060405180830381858888f19350505050158015610aab573d6000803e3d6000fd5b50847f989b3a845197c9aec15f8982bbb30b5da714050e662a7a287bb1a94c81e2e70e60405160405180910390a260019350505050919050565b600047905090565b6000806000806000806000606060001515610b078a610c85565b15151415610b455760008060008060008060008360001b93506040518060200160405280600081525097509750975097509750975097509750610c7a565b60008060008b815260200190815260200160002090508060000160009054906101000a900473ffffffffffffffffffffffffffffffffffffffff168160010160009054906101000a900473ffffffffffffffffffffffffffffffffffffffff168260020154836003015484600401548560050160009054906101000a900460ff168660050160019054906101000a900460ff1687600601808054610be89061184a565b80601f0160208091040260200160405190810160405280929190818152602001828054610c149061184a565b8015610c615780601f10610c3657610100808354040283529160200191610c61565b820191906000526020600020905b815481529060010190602001808311610c4457829003601f168201915b5050505050905098509850985098509850985098509850505b919395975091939597565b60008073ffffffffffffffffffffffffffffffffffffffff1660008084815260200190815260200160002060000160009054906101000a900473ffffffffffffffffffffffffffffffffffffffff1673ffffffffffffffffffffffffffffffffffffffff1614159050919050565b828054610cff9061184a565b90600052602060002090601f016020900481019282610d215760008555610d68565b82601f10610d3a57805160ff1916838001178555610d68565b82800160010185558215610d68579182015b82811115610d67578251825591602001919060010190610d4c565b5b509050610d759190610d79565b5090565b5b80821115610d92576000816000905550600101610d7a565b5090565b6000610da9610da484611737565b611706565b905082815260208101848484011115610dc157600080fd5b610dcc848285611808565b509392505050565b600081359050610de381611942565b92915050565b600081359050610df881611959565b92915050565b600081519050610e0d81611959565b92915050565b600082601f830112610e2457600080fd5b8135610e34848260208601610d96565b91505092915050565b600081359050610e4c81611970565b92915050565b600080600060608486031215610e6757600080fd5b6000610e7586828701610dd4565b9350506020610e8686828701610de9565b9250506040610e9786828701610e3d565b9150509250925092565b600060208284031215610eb357600080fd5b6000610ec184828501610de9565b91505092915050565b600060208284031215610edc57600080fd5b6000610eea84828501610dfe565b91505092915050565b60008060408385031215610f0657600080fd5b6000610f1485828601610de9565b925050602083013567ffffffffffffffff811115610f3157600080fd5b610f3d85828601610e13565b9150509250929050565b610f58610f53826117b6565b61188e565b82525050565b610f67816117a4565b82525050565b610f7e610f79826117a4565b61187c565b82525050565b610f8d816117c8565b82525050565b610f9c816117d4565b82525050565b610fb3610fae826117d4565b6118a0565b82525050565b6000610fc482611767565b610fce818561177d565b9350610fde818560208601611817565b80840191505092915050565b6000610ff582611772565b610fff8185611788565b935061100f818560208601611817565b61101881611924565b840191505092915050565b600061102e82611772565b6110388185611799565b9350611048818560208601611817565b80840191505092915050565b6000611061602383611788565b91507f74696d656c6f636b2074696d65206d75737420626520696e207468652066757460008301527f75726500000000000000000000000000000000000000000000000000000000006020830152604082019050919050565b60006110c7601a83611788565b91507f776974686472617761626c653a206e6f742072656365697665720000000000006000830152602082019050919050565b6000611107601983611788565b91507f636f6e7472616374496420646f6573206e6f74206578697374000000000000006000830152602082019050919050565b6000611147601d83611788565b91507f726566756e6461626c653a20616c72656164792077697468647261776e0000006000830152602082019050919050565b6000611187601783611788565b91507f436f6e747261637420616c7265616479206578697374730000000000000000006000830152602082019050919050565b60006111c7602383611788565b91507f726566756e6461626c653a2074696d656c6f636b206e6f74207965742070617360008301527f73656400000000000000000000000000000000000000000000000000000000006020830152604082019050919050565b600061122d601c83611788565b91507f726566756e6461626c653a20616c726561647920726566756e646564000000006000830152602082019050919050565b600061126d601f83611788565b91507f776974686472617761626c653a20616c72656164792077697468647261776e006000830152602082019050919050565b60006112ad601583611788565b91507f6d73672e76616c7565206d757374206265203e203000000000000000000000006000830152602082019050919050565b60006112ed601683611788565b91507f726566756e6461626c653a206e6f742073656e646572000000000000000000006000830152602082019050919050565b600061132d601c83611788565b91507f686173686c6f636b206861736820646f6573206e6f74206d61746368000000006000830152602082019050919050565b600061136d603183611788565b91507f776974686472617761626c653a2074696d656c6f636b2074696d65206d75737460008301527f20626520696e20746865206675747572650000000000000000000000000000006020830152604082019050919050565b6113cf816117fe565b82525050565b6113e66113e1826117fe565b6118bc565b82525050565b60006113f88288610f6d565b6014820191506114088287610f47565b60148201915061141882866113d5565b6020820191506114288285610fa2565b60208201915061143882846113d5565b6020820191508190509695505050505050565b60006114578284610fb9565b915081905092915050565b600061146e8284611023565b915081905092915050565b60006101008201905061148f600083018b610f5e565b61149c602083018a610f5e565b6114a960408301896113c6565b6114b66060830188610f93565b6114c360808301876113c6565b6114d060a0830186610f84565b6114dd60c0830185610f84565b81810360e08301526114ef8184610fea565b90509998505050505050505050565b60006020820190506115136000830184610f84565b92915050565b600060208201905061152e6000830184610f93565b92915050565b6000602082019050818103600083015261154d81611054565b9050919050565b6000602082019050818103600083015261156d816110ba565b9050919050565b6000602082019050818103600083015261158d816110fa565b9050919050565b600060208201905081810360008301526115ad8161113a565b9050919050565b600060208201905081810360008301526115cd8161117a565b9050919050565b600060208201905081810360008301526115ed816111ba565b9050919050565b6000602082019050818103600083015261160d81611220565b9050919050565b6000602082019050818103600083015261162d81611260565b9050919050565b6000602082019050818103600083015261164d816112a0565b9050919050565b6000602082019050818103600083015261166d816112e0565b9050919050565b6000602082019050818103600083015261168d81611320565b9050919050565b600060208201905081810360008301526116ad81611360565b9050919050565b60006020820190506116c960008301846113c6565b92915050565b60006060820190506116e460008301866113c6565b6116f16020830185610f93565b6116fe60408301846113c6565b949350505050565b6000604051905081810181811067ffffffffffffffff8211171561172d5761172c6118f5565b5b8060405250919050565b600067ffffffffffffffff821115611752576117516118f5565b5b601f19601f8301169050602081019050919050565b600081519050919050565b600081519050919050565b600081905092915050565b600082825260208201905092915050565b600081905092915050565b60006117af826117de565b9050919050565b60006117c1826117de565b9050919050565b60008115159050919050565b6000819050919050565b600073ffffffffffffffffffffffffffffffffffffffff82169050919050565b6000819050919050565b82818337600083830152505050565b60005b8381101561183557808201518184015260208101905061181a565b83811115611844576000848401525b50505050565b6000600282049050600182168061186257607f821691505b60208210811415611876576118756118c6565b5b50919050565b6000611887826118aa565b9050919050565b6000611899826118aa565b9050919050565b6000819050919050565b60006118b582611935565b9050919050565b6000819050919050565b7f4e487b7100000000000000000000000000000000000000000000000000000000600052602260045260246000fd5b7f4e487b7100000000000000000000000000000000000000000000000000000000600052604160045260246000fd5b6000601f19601f8301169050919050565b60008160601b9050919050565b61194b816117b6565b811461195657600080fd5b50565b611962816117d4565b811461196d57600080fd5b50565b611979816117fe565b811461198457600080fd5b5056fea2646970667358221220d6dbacfa6e484ab7e7b99a53e9722c9c40a1490a0422e4b77ff220d51b08a55964736f6c63430008000033",
  "immutableReferences": {},
  "source": "// SPDX-License-Identifier: MIT\npragma solidity >=0.4.22 <0.9.0;\ncontract HashedTimelock {\n\n    event LogHTLCNew(\n        bytes32 indexed contractId,\n        address indexed sender,\n        address indexed receiver,\n        uint amount,\n        bytes32 hashlock,\n        uint timelock\n    );\n    event LogHTLCWithdraw(bytes32 indexed contractId);\n    event LogHTLCRefund(bytes32 indexed contractId);\n\n    struct LockContract {\n        address payable sender;\n        address payable receiver;\n        uint amount;\n        bytes32 hashlock;\n        uint timelock; \n        bool withdrawn;\n        bool refunded;\n        string preimage;\n    }\n    modifier fundsSent() {\n        require(msg.value > 0, \"msg.value must be > 0\");\n        _;\n    }\n    modifier futureTimelock(uint _time) {\n        require(_time > block.timestamp, \"timelock time must be in the future\");\n        _;\n    }\n    modifier contractExists(bytes32 _contractId) {\n        require(haveContract(_contractId), \"contractId does not exist\");\n        _;\n    }\n    modifier hashlockMatches(bytes32 _contractId, string memory _x) {\n        bytes32 b = keccak256(abi.encodePacked(_x));\n        require(\n            contracts[_contractId].hashlock == b,\n            \"hashlock hash does not match\"\n        );\n        _;\n    }\n    modifier withdrawable(bytes32 _contractId) {\n        require(contracts[_contractId].receiver == msg.sender, \"withdrawable: not receiver\");\n        require(contracts[_contractId].withdrawn == false, \"withdrawable: already withdrawn\");\n        require(contracts[_contractId].timelock > block.timestamp, \"withdrawable: timelock time must be in the future\");\n        _;\n    }\n    modifier refundable(bytes32 _contractId) {\n        require(contracts[_contractId].sender == msg.sender, \"refundable: not sender\");\n        require(contracts[_contractId].refunded == false, \"refundable: already refunded\");\n        require(contracts[_contractId].withdrawn == false, \"refundable: already withdrawn\");\n        require(contracts[_contractId].timelock <= block.timestamp, \"refundable: timelock not yet passed\");\n        _;\n    }\n    mapping (bytes32 => LockContract) contracts;\n    function newContract(address payable _receiver, bytes32 _hashlock, uint _timelock)\n        external\n        payable\n        fundsSent\n        futureTimelock(_timelock)\n        returns (bytes32 contractId)\n    {\n        contractId = sha256(\n            abi.encodePacked(\n                msg.sender,\n                _receiver,\n                msg.value,\n                _hashlock,\n                _timelock\n            )\n        );\n        if (haveContract(contractId))\n            revert(\"Contract already exists\");\n\n        contracts[contractId] = LockContract(\n            payable(msg.sender),\n            _receiver,\n            msg.value,\n            _hashlock,\n            _timelock,\n            false,\n            false,\n            \"\"\n        );\n\n        emit LogHTLCNew(\n            contractId,\n            msg.sender,\n            _receiver,\n            msg.value,\n            _hashlock,\n            _timelock\n        );\n    }\n function balance() public view returns(uint){\n     return address(this).balance;\n }\n    \n    function withdraw(bytes32 _contractId, string memory _preimage)\n        external\n        contractExists(_contractId)\n        hashlockMatches(_contractId, _preimage)\n        withdrawable(_contractId)\n        returns (bool)\n    {\n        LockContract storage c = contracts[_contractId];\n        c.preimage = _preimage;\n        c.withdrawn = true;\n        c.receiver.transfer(c.amount);\n        c.amount = 0 ;\n        emit LogHTLCWithdraw(_contractId);\n        return true;\n    }\n    function refund(bytes32 _contractId)\n        external\n        contractExists(_contractId)\n        refundable(_contractId)\n        returns (bool)\n    {\n        LockContract storage c = contracts[_contractId];\n        c.refunded = true;\n        c.sender.transfer(c.amount);\n        emit LogHTLCRefund(_contractId);\n        return true;\n    }\n    function getContract(bytes32 _contractId)\n        public\n        view\n        returns (\n            address sender,\n            address receiver,\n            uint amount,\n            bytes32 hashlock,\n            uint timelock,\n            bool withdrawn,\n            bool refunded,\n            string memory preimage\n        )\n    {\n        if (haveContract(_contractId) == false)\n            return (address(0), address(0), 0, 0, 0, false, false, \"\");\n        LockContract storage c = contracts[_contractId];\n        return (\n            c.sender,\n            c.receiver,\n            c.amount,\n            c.hashlock,\n            c.timelock,\n            c.withdrawn,\n            c.refunded,\n            c.preimage\n        );\n    }\n    function haveContract(bytes32 _contractId)\n        internal\n        view\n        returns (bool exists)\n    {\n        exists = (contracts[_contractId].sender != address(0));\n    }\n\n}",
  "sourcePath": "/home/abhaypratap/Desktop/BOB/send/contracts/HashedTimelock.sol",
  "compiler": {
    "name": "solc",
    "version": "0.8.0+commit.c7dfd78e.Emscripten.clang"
  },
  "schemaVersion": "3.4.7",
  "updatedAt": "2022-11-15T06:05:14.300Z",
  "networkType": "ethereum",
  "devdoc": {
    "kind": "dev",
    "methods": {},
    "version": 1
  },
  "userdoc": {
    "kind": "user",
    "methods": {},
    "version": 1
  }
}